{
  "_format": "hh-sol-artifact-1",
  "contractName": "EmitWinnerCaller",
  "sourceName": "contracts/EmitWinnerCaller.sol",
  "abi": [
    {
      "inputs": [],
      "name": "callAttempt",
      "outputs": [],
      "stateMutability": "nonpayable",
      "type": "function"
    }
  ],
  "bytecode": "0x608060405234801561001057600080fd5b5060df8061001f6000396000f3fe6080604052348015600f57600080fd5b506004361060285760003560e01c806327265b4314602d575b600080fd5b60336035565b005b73633a61fa4a917686d995d81b222de2fa3e20acd673ffffffffffffffffffffffffffffffffffffffff1663732b7a8d6040518163ffffffff1660e01b8152600401600060405180830381600087803b158015609057600080fd5b505af115801560a3573d6000803e3d6000fd5b5050505056fea26469706673582212201b570b789014321743854e66e7653cad124362f2d7025bcb20e8d996a86e6c3764736f6c63430008180033",
  "linkReferences": {},
  "deployedLinkReferences": {}
}