{
  "_format": "hh-sol-artifact-1",
  "contractName": "CallerRegistry",
  "sourceName": "contracts/CallerRegistry.sol",
  "abi": [
    {
      "inputs": [
        {
          "internalType": "bool",
          "name": "status",
          "type": "bool"
        }
      ],
      "name": "setCallerStatus",
      "outputs": [],
      "stateMutability": "nonpayable",
      "type": "function"
    },
    {
      "inputs": [
        {
          "internalType": "address",
          "name": "caller",
          "type": "address"
        }
      ],
      "name": "viewCallerStatus",
      "outputs": [
        {
          "internalType": "bool",
          "name": "",
          "type": "bool"
        }
      ],
      "stateMutability": "view",
      "type": "function"
    }
  ],
  "bytecode": "0x608060405234801561001057600080fd5b5061028a806100206000396000f3fe608060405234801561001057600080fd5b50600436106100365760003560e01c806378e3404b1461003b578063c02982f11461006b575b600080fd5b61005560048036038101906100509190610198565b610087565b60405161006291906101e0565b60405180910390f35b61008560048036038101906100809190610227565b6100dc565b005b60008060008373ffffffffffffffffffffffffffffffffffffffff1673ffffffffffffffffffffffffffffffffffffffff16815260200190815260200160002060009054906101000a900460ff169050919050565b806000803373ffffffffffffffffffffffffffffffffffffffff1673ffffffffffffffffffffffffffffffffffffffff16815260200190815260200160002060006101000a81548160ff02191690831515021790555050565b600080fd5b600073ffffffffffffffffffffffffffffffffffffffff82169050919050565b60006101658261013a565b9050919050565b6101758161015a565b811461018057600080fd5b50565b6000813590506101928161016c565b92915050565b6000602082840312156101ae576101ad610135565b5b60006101bc84828501610183565b91505092915050565b60008115159050919050565b6101da816101c5565b82525050565b60006020820190506101f560008301846101d1565b92915050565b610204816101c5565b811461020f57600080fd5b50565b600081359050610221816101fb565b92915050565b60006020828403121561023d5761023c610135565b5b600061024b84828501610212565b9150509291505056fea264697066735822122098f34d37aecc4c14003b03fc67a58d1dded8ed5ab0714880213d70a7d7ef6db064736f6c63430008180033",
  "linkReferences": {},
  "deployedLinkReferences": {}
}